:020000040800F2
:10000000C011012089080008053B00087508000898
:100010007508000875080008750800080000000051
:100020000000000000000000000000004909000876
:100030007508000800000000E9080008A51800087D
:10004000C10A0008C10A0008C10A0008C10A000864
:10005000C10A0008C10A0008C10A0008C10A000854
:10006000C10A0008C10A0008C10A0008C10A000844
:10007000C10A0008C10A0008C10A0008C10A000834
:10008000C10A0008C10A0008C10A0008C10A000824
:10009000C10A0008C10A0008C10A0008C10A000814
:1000A000C10A0008C10A0008C10A0008C10A000804
:1000B000C10A0008C10A0008C10A0008C10A0008F4
:1000C000C10A0008C10A0008C10A0008C10A0008E4
:1000D000C10A0008C10A0008C10A0008C10A0008D4
:1000E000C10A0008C10A0008C10A0008C10A0008C4
:1000F000C10A0008C10A0008C10A0008C10A0008B4
:10010000C10A0008C10A0008C10A0008C10A0008A3
:10011000C10A0008C10A0008C10A0008C10A000893
:10012000C10A0008C10A0008C10A0008C10A000883
:10013000C10A0008C10A0008C10A0008C10A000873
:10014000C10A0008C10A0008C10A0008C10A000863
:10015000C10A0008C10A0008C10A0008C10A000853
:10016000C10A0008C10A0008C10A0008C10A000843
:10017000C10A0008C10A0008C10A0008C10A000833
:10018000C10A0008C10A0008C10A0008C10A000823
:10019000C10A0008C10A0008C10A0008C10A000813
:1001A000C10A0008C10A0008C10A0008C10A000803
:1001B000C10A0008C10A0008C10A0008C10A0008F3
:0801C000C10A0008C10A000891
:1001C80053B94AB9002908BF00281CBF4FF0FF31B6
:1001D8004FF0FF3000F00CB8ADF1080C6DE904CE1B
:1001E80000F008F8DDF804E0DDE9022304B0704708
:1001F800704700BF2DE9F04786468C460846089EA2
:10020800154674461946002B40F0C2808542B2FA62
:1002180082F245D94AB1C2F1200300FA02FC2EFA53
:1002280003F3954043EA0C0C94404FEA154EA8B2EC
:10023800BCFBFEF8230C0EFB18CC08FB00F943EAC4
:100248000C43994528D9EB1808F1FF3704D2994592
:1002580002D9A8F102072B44A3EB0903A4B2B3FB0C
:10026800FEFC0EFB1C330CFB00F044EA0344A042E6
:1002780014D92C190CF1FF3304D2A04202D9ACF1E5
:1002880002032C44241A43EA07401EB1D440002339
:1002980034607360BDE8F0874746DDE76346F1E701
:1002A80092BB431B01214FEA154EAFB2B3FBFEFCD4
:1002B800200C0EFB1C330CFB07F840EA034398455F
:1002C80062D9EB180CF1FF3004D2984502D9ACF191
:1002D80002002B44A3EB0803A4B2B3FBFEFC0EFB05
:1002E8001C330CFB07F744EA0344A7424ED92C19E8
:1002F8000CF1FF3304D2A74202D9ACF102032C441B
:10030800E41B43EA0040C0E7C2F1200320FA03F1EE
:10031800954090402EFA03F303434FEA154EAFB2CF
:10032800B1FBFEFC0EFB1C10190C0CFB07F841EA94
:100338000041884504FA02F422D969180CF1FF300B
:1003480004D2884502D9ACF102002944A1EB080186
:100358009BB2B1FBFEFC0EFB1C110CFB07F743EA3A
:1003680001439F420ED9EB180CF1FF3104D29F4292
:1003780002D9ACF102012B44DB1B41EA004192E7B0
:100388006046E3E76146F7E76046A3E76346B7E7F9
:10039800834206D916B9002108467BE7C6E900E082
:1003A800F9E7B3FA83F78FB9834201D3724508D8C6
:1003B800BEEB020460EB030301209C461EB900213A
:1003C80068E73846FAE7C6E9004CF8E7C7F1200CB9
:1003D800BB4022FA0CF41C432EFA0CF120FA0CF361
:1003E800B84001434FEA14490EFA07F5B3FBF9F890
:1003F8001FFA84FE09FB18300B0C08FB0EFA43EABF
:1004080000439A4502FA07F240D9E31808F1FF3091
:1004180004D29A4502D9A8F102002344A3EB0A03A7
:1004280089B2B3FBF9F809FB183308FB0EFE41EA61
:1004380003418E452CD9611808F1FF3304D28E454B
:1004480002D9A8F10203214443EA0040A0FB029824
:10045800A1EB0E014145CE46434602D306D14D4598
:1004680004D2B9EB020E68EB04030138002EA6D0C3
:10047800B5EB0E0261EB030101FA0CFC22FA07F35B
:100488004CEA0303F940C6E9003198E74046C5E75E
:100498004346D9E7014803F019BB00BF765100086D
:1004A800014B1B68184700BF00000120014B186072
:1004B800704700BF0000012030B585B004460D46E6
:1004C80010220021684604F07FF802232A462146BC
:1004D8008DF802306846034B019302F033F905B0FA
:1004E80030BD00BFA904000880B505460E46174672
:1004F800984601F015FEDFF82090034604F06CF8EA
:100508000446424649F8003039463046A84754F870
:10051800090000F0CFF900BF08000000034A0020DE
:10052800536823F002035360704700BF002004E0C3
:10053800064B1A6842F400721A601A6842F4807214
:100548001A60034B034A1A60704700BF003C024020
:10055800340001200024F400014B0360032070479D
:10056800984E000830BFFFF7FDBF00BF2DE9F041EE
:100578000B4E0546DFF82C80324606EB0807CC1BED
:100588000949204604F012F8A019083C4246002107
:1005980004F01AF807F108002C67BDE8F08100BFE5
:1005A8000000000004000000084C0008054B5A69D0
:1005B8009B689A4204D0044A536843F080535360BE
:1005C800704700BFAC03012000ED00E0264B70B57A
:1005D80015469A6A064612F0100F9A6A14BF11243B
:1005E800102412F0080F9A6A18BF122492070AD52D
:1005F800586B9A6A140634D519B19A6A22F08002A7
:100608009A62132401E06FF01500174B9A6A12F0F2
:10061800010F9A6A18BF142412F0200F9A6A18BFA3
:100628001524D20602D49B6A9B070AD50E4B5B6839
:10063800190506D5314600F0F9F910B180F309889B
:100648000224094B9A6A920603D55A6A22F4005288
:100658005A629A6A204642F0FF029A6200232B707F
:1006680070BD6FF01500CCE700ED00E0134B9A6AFF
:1006780012F0007F9A6A14BF1E201D2012F0807F9E
:100688009A6A18BF1F2012F4002F9A6A18BF2120F7
:1006980012F4802F9A6A18BF222012F4003F9A6A37
:1006A80018BF232012F4803F9A6A6FEA024218BFEB
:1006B80024206FEA12429A62704700BF00ED00E002
:1006C800194B024610B5986A9C6A10F4805F14BFF3
:1006D8001720162014F4006F9C6A18BF1820A40570
:1006E80009D5986B986A000404D51AB19A6A22F45D
:1006F80000429A6219200C4B9A6A12F4806F9A6A27
:1007080018BF1A20D2050CD49B6A13F4005F18BFD7
:100718001C20054A936A43F47F43936200230B70BD
:1007280010BD1B20F5E700BF00ED00E0484BF0B519
:100738005B688BB004460025C3F3080385F3118872
:10074800BFF36F8F02F07F40B0F17F4F11D102F0FD
:100758000C0008280DD010074CBF0C4601250022BC
:10076800033B8DF80720032B05D8DFE803F0256449
:1007780068612C46F3E700239DF80720D2B902AE42
:1007880004F120072068083454F8041C3246BC429F
:1007980003C21646F6D1099A002D54D0C2F30801B7
:1007A80021B96FEA52226FEA4222099202A9184639
:1007B80003F09AF90BB0F0BD254BDA6A9107DAD449
:1007C800DA6A002AD7DBDA6A5200D4D55A69A169F5
:1007D80042F480725A61BFF34F8FBFF36F8F5A692B
:1007E80031F8021C22F480725A61BFF34F8FBFF3B5
:1007F8006F8F4DF6027291420AD09A6AD2B24AB10C
:100808000DF1070201212046FFF7E0FE0346B3E79A
:100818002368B1E79A6A12F47F4F05D00DF10701FA
:100828000120FFF74DFFF1E79B6AB3F5803FA2D3A4
:10083800FFF71CFFEAE70DF107020021E3E70DF1DE
:1008480007010020EDE722F4FF7222F00102ACE775
:1008580000ED00E0044B5A6942F010025A615A69EF
:1008680022F008025A61704700ED00E0EFF30880BB
:10087800EFF3098101B57246FFF758FF01BD00BFCC
:100888000A4880F30888102080F3118808484FF43C
:100898000461401880F30988EFF3148002210843AB
:1008A80080F31488BFF36F8F00F08EF8C011012019
:1008B80000040120084B9B6883420BD1EFF30583AA
:1008C80043B1064B5A6842F080525A605A6A22F481
:1008D80000425A6201F02ABCAC03012000ED00E09E
:1008E80014498A684FF030001044EFF3098C80E80F
:1008F800F01F102080F31288BFF36F8F0E4F4FF058
:1009080000664A698A603E60106F0C4C2060506F28
:100918000023536780F3118804B5104600F0EAF805
:10092800BDE8044002F1300090E8F01F8CF309881C
:1009380070470000AC03012004ED00E0280201200C
:100948001EF0040F0CBFEFF30880EFF309808169F4
:1009580011F8021C0229FFD001B5724603F0CAF84B
:1009680001BD00BF40B2002807DB0123410900F0A8
:100978001F00024A834042F82130704700E100E03E
:1009880040B2013100284FEA0111C9B206DB00F17B
:10099800604000F5614080F80013704700F00F00D8
:1009A800014B1954704700BF14ED00E0044B054A91
:1009B80023F07F039360BFF34F8FBFF36F8F7047B0
:1009C8000000000800ED00E008B5FFF7EFFF0B4A54
:1009D800D2F8883023F47003C2F88830EFF3148318
:1009E80023F0040383F31488BFF36F8F01F050F9E9
:1009F80001F0BEFC00F054F801F098F900ED00E0B9
:100A080042F8203C203A009B07495360019B21F0A3
:100A180001019360029B9161D3604FF08073D361B1
:100A28000023026543677047F1040008094A03463A
:100A3800906870B113F1160F006E05D0A0F1400256
:100A48009A4205D8834203D2814228BF00207047CA
:100A580000207047AC03012015460A4A0E4608B527
:100A6800094B9060026F1A6000F044F82C4686F338
:100A780009880020054B98472046002100220023C2
:100A8800034C2047AC030120280201201B3B00082F
:100A9800F1040008014B10221A61704700ED00E0D4
:100AA800002304481021C2180133622B82F8001376
:100AB800F9D1704700E100E008B5EFF30583064A75
:100AC800103B02EBC30152F8330049688847BDE880
:100AD8000840FFF76BBD00BF94480008024B012196
:100AE800024A034800F076B8000005200000012003
:100AF800C84E0008026E4021044B403A18461A605E
:100B0800034AC3E90112012100F06EB82C0201204A
:100B180000000B15084AC2F898000B6823F01F0361
:100B2800034343F01003C2F89C308B6843F0010381
:100B3800C2F8A030704700BF00ED00E02DE9F04397
:100B48000E4685B01F4604464FF00009DFF8548072
:100B5800B14523DA6068D8B13FB1411E08421BD1C4
:100B68001F2819D92368194216D12368019302F066
:100B7800E4FFA3680343D0B20393D8F89050C5F3B9
:100B88000725013DA84207D801A9FFF7C3FF421C6A
:100B980009F101090C34DBE76FF01502104605B0C6
:100BA800BDE8F08300ED00E0044B0522C3F8942073
:100BB800BFF34F8FBFF36F8F704700BF00ED00E0AA
:100BC800BFF35F8F024B0022C3F89420704700BF29
:100BD80000ED00E010B5034C01232278FFF7AEFFCB
:100BE800207010BDD80301200B4A08B500231278E5
:100BF800FFF7A4FF10F1160F07D0084A0021D2F81A
:100C08009030C3F30723984200DB08BDC2F8980070
:100C18000130C2F8A010F2E7D803012000ED00E08F
:100C2800544B2DE9F043544C85B0D3F890302568E7
:100C3800C3F307239D4200F29A8000200C26FFF799
:100C4800BFFF85421AD14D4C68464D4F2570FFF7BE
:100C580083FC00250646DFF81C81DFF82891AE42A8
:100C680013D1237800204349D1F89020C2F30722FA
:100C7800934276DB0020FFF797FF42E0616806FBAE
:100C88000011FFF747FF0130DBE700984FEA051C2A
:100C980000EB0511CB683B40B3F5000F48D00AD8EC
:100CA800B3F5001F30D0B3F5800F36D0B3F5801FF1
:100CB80010D00135D3E7B3F1807F42D0B3F1007F84
:100CC800F7D150F80C30886802F037FF4A6840F4D2
:100CD800802009E050F80C30886802F02EFF40F0C0
:100CE80088504A6840F4302003902078CDE90123E9
:100CF800D8F89030C3F30723013B98422AD96FF004
:100D0800150005B0BDE8F08350F80C30886802F093
:100D180014FF4A6840EA0900E6E750F80C30886892
:100D280002F00BFF40F0C0604A6840F40030DBE797
:100D380050F80C30886802F000FF4A6840F0827072
:100D4800D2E750F80C30886802F0F7FE4A6840F0A5
:100D58008870C9E701A9FFF7DDFE23780133237006
:100D6800A7E7C1F898300133C1F8A0007CE74FF03D
:100D7800FF30C6E700ED00E0D44E0008D80301209C
:100D88000000F0FF0000081108B5024B1B689847E7
:100D9800002008BD38020120034B044A18609378EC
:100DA80043F00203937070473802012004000120C9
:100DB8000649074821F00701C1F1005208B502F5BC
:100DC800A02202F044FE002008BD00BF0712012047
:100DD8003C0201202DE9F041054600244FF00108AE
:100DE8000E4E0F4F2B7871691A19D2B208FA02F217
:100DF80001EA02008A4309D153FA84F3706157F873
:100E080033201AB107EBC3035968904701346A7855
:100E1800E3B29A42E6D2BDE8F08100BF003C01404F
:100E280048020120044B18440023013300F8012B29
:100E38009942FADC704700BF4400012007B506223A
:100E480001210020FFF7EEFF002206201146FFF7E0
:100E580097FD012107220846FFF7E4FF002207203B
:100E68001146FFF78DFD082201210220FFF7DAFF66
:100E7800002208201146FFF783FD092201210320E3
:100E8800FFF7D0FF002209201146FFF779FD0A225B
:100E980001210420FFF7C6FF00220A201146FFF7B0
:100EA8006FFD052117220846FFF7BCFF0022172017
:100EB8001146FFF765FD282206210A20FFF7B2FF39
:100EC800002228201146FFF75BFD4FF4804344229F
:100ED8000648CDE9002383681B6823B16946984713
:100EE80003B05DF804FB6FF05700F9E7944600087B
:100EF800034660B1B0FA80F2C2F11F02D2B20549CE
:100F08008856054A11680B431360FFF72BBDFF2273
:100F1800F5E700BF44000120003C0140024A136885
:100F280023EA000313607047003C0140032921D8DD
:100F3800DFE801F0020C10190F4B9A6822EA000250
:100F48009A60DA6822EA0002DA6070470A4B9A6807
:100F58000243F5E7084BDA680243DA609A6822EA46
:100F680000029A607047044B9A6802439A60DA68F4
:100F78001043D860704700BF003C014030B5B0B1A5
:100F8800B0FA80F3C3F11F03DBB20B4850F83340CB
:100F98008C4204D100EBC3056D68954205D044B975
:100FA80040F8331000EBC3004260002030BDFF233F
:100FB800EBE76FF00F00F9E74802012060B1B0FAE3
:100FC80080F3C3F11F03DBB2044A002142F8331057
:100FD80002EBC30251607047FF23F5E74802012086
:100FE80000F003020F23043292009340074A43EAB9
:100FF8009000C3B2023352F82320030C93FAA3F3F0
:1010080002EA1040B3FA83F3D84070470038014031
:1010180038B5284B14460D4618680B88C3F30B02E5
:10102800092A1DD0072A134611D8CAB1931E052BC9
:1010380006D8DFE803F0360336341E284FF4FA40AA
:1010480020602B68B3F5805F2DD2002038BD402A80
:101058000DD008D822F00402302AF1D0382BEFD076
:101068006FF08500F2E7442A0BD0A82AF7E780083A
:10107800E6E700F0B5F81923B0FBF3F04FF4D873A6
:1010880058434008DCE700F0ABF81923B0FBF3F055
:101098004FF4D87358430923B0FBF3F0D0E7064860
:1010A800CEE70020CCE7C3F313330133B0FBF3F0F2
:1010B8002060CAE73400012040787D0170B5444DB6
:1010C80000F0C2F8434C284602F0F8FD00F0B2FCEC
:1010D800A368414AC3F30313D35C20FA03F61378D9
:1010E8001D41AE4202D2284600F0D2FC236823F408
:1010F80080232360236843F480332360354B1A68C8
:101108009103FCD55A6F42F001025A675A6F920751
:10111800FCD59A6802F00C02082A17D11A689407BD
:1011280007D41A6842F001021A602A4A136898071D
:10113800FCD5284B9A6822F003029A609A6812F04C
:101148000C0FFBD19A6822F0F0029A60214C2368B8
:1011580023F08073236023689901FCD4636823F427
:1011680040336360636823F0706343F01063636027
:1011780000F03AF8236843F080732360154B1A682F
:101188009201FCD59A6822F0F0029A609A6822F0DF
:10119800030242F002029A609A6802F00C02082ADE
:1011A800FAD1AE4202D3284600F072FC0B4B002065
:1011B800074A1A60074A936823F4E05343F4A0539C
:1011C8009360936823F4604343F40043936070BDD5
:1011D80000E6DF0C00380240DF520008340001202E
:1011E8000048704740787D01114B12495A681140F8
:1011F800114A0A4311495A605A681140104A0A4371
:101208005A601A6842F080721A60A3F5E4331A68CB
:1012180042F480321A605A68D203FCD51A6842F444
:1012280000321A60074A53689B03FCD5704700BF19
:10123800003802400080BCFF196C40000080BFF0FD
:10124800196C400900700040064B82B01A6C42F0DD
:1012580080521A641B6C03F080530193019B02B007
:10126800704700BF0038024008B5074802F0B4FFD5
:1012780038B10648FFF790FD0448FFF717F900203A
:1012880008BD6FF01200FBE77448000899120008C7
:101298000A2838B50446074D04D1AB680D21284605
:1012A8005B689847AB68E1B202485B68984720469C
:1012B80038BD00BF744800082DE9F843D0F8048011
:1012C8001746D0F810900D46D8F808001E4602F0D0
:1012D80049FCB7F5001F044616D1D8F8084028463F
:1012E800FFF77EFE84420CD1294602F03BFC0446FF
:1012F800FFF714FE2046FFF761FE00212046FFF7A6
:1013080015FE0020BDE8F883B7F5800F20D0B6F1B0
:10131800806F19D0B6F1C06F18D0B6F1007F1AD11E
:1013280002264A460F492046FFF728FEB0B9D8F8EA
:101338000810284602F019FC20463146FFF7F6FD52
:101348002046FFF7D5FDDCE70126EAE70326E8E7B4
:101358006FF08500D6E76FF01500D3E76FF00F0048
:10136800D0E700BF473F000838B503690446586016
:101378000A4D284602F030FF60B1AB6861681B680F
:101388000C3123B12846984700EAE07038BD6FF069
:101398005700F9E76FF01200F8E700BF944600081D
:1013A8002DE9F047044600EBC10600251C4FB44266
:1013B80001D1002014E02068C30600F01F0911D4F1
:1013C800656845F02005C0F3481AC0F3442010288A
:1013D80023D857F82080B8F1000F0DD16FF0120014
:1013E800BDE8F087B9F1100F04D0B9F1110FEAD1B7
:1013F8006568E8E73025E6E7404602F0EDFE00289C
:10140800ECD04B462A460AF00F01404602F0ADFDEB
:10141800002804F10804CADAE2E76FF01500DFE7F4
:10142800D04F0008F8B50C46036941685D68237918
:10143800012B15D09F1E7E427E41B6026279022A98
:1014480096BF444F4FF4005737F81270A279022A1A
:1014580009D0042A2FD0003B18BF01231B0306E044
:101468004FF4C066EAE7B3FA83F35B091B07E27936
:101478000968012A14BF4FF0000C4FF4407CA542C4
:101488001CD10A6822F0805222F4B05232431A4327
:101498000A604B6823F440533B434B6043681A6827
:1014A800936823F4407343EA0C0393602968BDE80A
:1014B800F84002F0BEBD4FF48053D8E7D1F800E001
:1014C8000EF4C06E764506D0D1F800E02EF4C06E5A
:1014D8004EEA06060E6041680E68716801F44051D4
:1014E8008F4204D0716821F44051394371604168DA
:1014F8000E68316801F010218B4204D0316821F068
:1015080010210B433360436819688B6803F44073F8
:101518009C4505D08B6823F4407343EA0C038B6029
:1015280043681B689968490405D5032A09D09A6855
:1015380022F4804204E0032A03D19A6842F48042EC
:101548009A6021682B68994203D002F072FD2368E3
:101558002B60F8BD70510008F7B506464468056968
:101568005348286002F038FE002800F09780286869
:10157800E16883681B68002B00F094809847002876
:10158800C0F28E8001AA0021206A02F006FD002820
:10159800C0F28680019B002219791868FFF700FFC6
:1015A80000287DDB756833692C685F68236823F041
:1015B80001032360686802F00FFE00286ED0D5E9A9
:1015C80001018368DB6803B1984754E8003F43F0A2
:1015D8000C0344E80032002AF7D139463046FFF7B9
:1015E80021FF2B7D1BB1A36843F00803A3606B7D2B
:1015F8001BB1636843F400436360AB7D1BB1636850
:1016080043F480336360EB7D1BB1636843F40033BC
:1016180063602B7E002B38D0264B9C421BD0A3F551
:101628004C439C4217D003F580639C4213D003F5CA
:1016380080639C420FD003F580639C420BD003F576
:1016480044439C4207D0A3F51C439C4203D003F5B6
:1016580080639C4229D173681A68936843F4804375
:10166800936023686A7E23F0787343EA42532360C9
:101678002368AA7E23F4F81343EA02432360EB7E2F
:101688001BB1A36843F40043A360236843F001033C
:101698002360E3699B02FCD5002001E06FF0120093
:1016A80003B0F0BD6FF05700FAE76FF01500F7E7E9
:1016B8009446000800100140F8B5436802460E46FB
:1016C80091F805E01C68036908795D6801288B7941
:1016D8001ED1BEF1020F72D9022B1F464FF4C06112
:1016E8004FF4005C00F08380042B7BD020B1C31E34
:1016F800012B79D94FF48050BCF5805F00F08180D0
:10170800BCF5405F7FD0BCF1000F1CD101231BE06A
:1017180002280AD1BEF1020F5DD9022B1F464FF4F1
:1017280080610BD04FF4005CDEE7BEF1020F55D9A3
:10173800022B1F4654D100285FD00021C31E012B65
:1017480052D900200227032373454DD102F08CFCA7
:10175800B84249D1F37903B3012B56D12C4B9C42A3
:101768001BD0A3F54C439C4217D003F580639C42E1
:1017780013D003F580639C420FD003F580639C422D
:101788000BD003F544439C4207D0A3F51C439C426D
:1017980003D003F580639C4226D123683146104666
:1017A80023F001032360FFF73DFE236843F00103A4
:1017B800236096E8030085E803000020F8BD4FF495
:1017C800C061144F022B37F81EC01F468CD170B968
:1017D8004FF0805090E74FF48061F2E70021F0E786
:1017E80000219FE7002885D06FF08500E6E7C31E3B
:1017F800012BF9D9022700207EE701464FF08050DF
:10180800A1E70023A0E702239EE7032BA6D0EBE77E
:1018180000100140705100084FF0E0230F4910B547
:101828009C691A6908689B6902F480320C4934B9CA
:1018380093B903464AB90A681044C01A10BD002B70
:1018480008BF03460AB9A342F5D90A6802440A60E8
:101858004FF0E0221269EEE70446F3E7A8030120FF
:10186800A40301200A4B1022002083F8232045F20C
:101878006042084B1A6045F25F42074B18604FF010
:10188800E0235A6198611A6942F007021A617047A9
:1018980000ED00E0A8030120A4030120684620F021
:1018A80007018D4619B5FFF7B7FF1149114B0868B5
:1018B800D3E90042001942F10002C3E900020E4ACE
:1018C80000230B6045F26043D2E90041001BB0FBE6
:1018D800F3F043431B1941F10001C2E9003100F064
:1018E8002FFEFEF763FEBDE819408546704700BF2E
:1018F800A403012080000120780001202DE9F04197
:10190800DFF8E08099B1421C0BD14FF0E022136957
:1019180023F0010313614FF07F43C8F80030BDE89E
:10192800F081D8F80060012807DC00270BE0431C91
:10193800D8F80060F7D140F20730B0F5427FA8BF71
:101948004FF44270471EEFF31185102383F312887A
:10195800BFF36F8FFFF760FF234C4FF0E0239969C7
:10196800D4E9002380184FF0000243F10003C4E9D2
:1019780000031E4B1A601E4B1A68831A2ED445F2B8
:10198800604C0CFB073303F5A8435F33B3FBFCF74C
:10199800131A40F246520CFB0733934238BF1346E2
:1019A800144A934228BF1346C8F800304FF0E0228B
:1019B800013B90695361002381429361A1EB0003CD
:1019C800D4E9001238BF9B195B1842F10002C4E940
:1019D800003285F31188BFF36F8FA0E740F24653BA
:1019E800E2E700BFA803012080000120A403012032
:1019F80078000120A06EFF0038B5EFF311851023A1
:101A080083F31288BFF36F8F084B1C68084B1B6861
:101A1800E41AFFF701FF85F31188BFF36F8F45F2D2
:101A280060432044B0FBF3F038BD00BF80000120C4
:101A380078000120134908B58B6803F00C03042BC8
:101A48001BD0082B1BD14A684B68496802F03F023B
:101A580013F48003C1F388111ABF0B4800230B4805
:101A6800A1FB0001FEF7ACFB064B5B68C3F3014327
:101A780001335B00B0FBF3F008BD0348FCE7034803
:101A8800FAE700BF0038024040787D010024F400E6
:101A980000285DD02F4B1A681B6802F44042B2F54B
:101AA800404F33D113F4803310D102F10F6202F5A5
:101AB8008C52904248D8284A904247D8274A9042A8
:101AC80035D8274A904209D902230DE0254B984280
:101AD80038D8234B98424FF0060305D8224A904243
:101AE80002D9012B38BF012320490A6822F00F02CE
:101AF8001A430A600A6802F00F02934202D00A6889
:101B080002F00F02981A18BF0120704703F44043EF
:101B1800B3F5004F05D103F10F6303F5A3439842D2
:101B280012D80D4B984211D80C4B984201D9032377
:101B3800DAE70B4B9842C7D80B4B984294BF002367
:101B48000123D1E70723CFE70523CDE70423CBE71C
:101B58000120704700700040000E2707804A5D058D
:101B6800008793038058840C80C3C901003C02405D
:101B780038B5EFF31185102383F31288BFF36F8F05
:101B8800064B9C6802F03BFB85F31188BFF36F8F0F
:101B98002046BDE83840FEF78DBE00BFAC030120EB
:101BA80038B50A4B53F82040013053F82050A5426D
:101BB80000D838BD606830B1037FDB0701D402F07C
:101BC80021FB0834F3E723689847FAE7B050000888
:101BD8002A4B0122032070B5294C86B0294D1A7072
:101BE800FFF7DEFF00F00CFD0420FFF7D9FF2646C3
:101BF8003034AE4210D3224C00F01EFA224EAC42D2
:101C080026D300F02DFAFEF745FC204A137B23F07B
:101C18000103137306B070BD54F80C3C059354F8D7
:101C2800103C049354F8143C039354F8183C029362
:101C380054F81C3C019354F8203C009354E90A23BF
:101C480054E90C0100F0D6F854F8303C5E65CEE754
:101C5800D4E90A23B3F1FF3F08BFB2F1FF3F05D033
:101C680052EA0301206803D100F036FA3034C6E79F
:101C78003146183000F0D2FBF8E700BFD903012045
:101C8800A44B0008A44B0008D54200080801012015
:101C980006480021064A08B5121A02F0CAFA054891
:101CA800054A0021121A02F0C4FA08BD7800012082
:101CB800DC030120000000200000002070B5002394
:101CC80086B00122144E01930446144D06EBC0164B
:101CD8001349CDE904230F22CDE9023214234FF42E
:101CE800A07203FB00554FF4C0700E4B00FB0411AB
:101CF8003046009500F07EF8737B0B4A23F004030E
:101D0800EE602C7473734FF4046304FB03331344C1
:101D18006B6006B070BD00BF88000120AC030120D5
:101D2800400C01204342000800040120BFB50020F8
:101D3800FFF736FF274B83F30888274D0024F0234D
:101D4800264F85F82230EC772C766C76AC7685F8C1
:101D580020406B6A43F4E0236B62FEF77BFDFEF7DD
:101D680099FE4FF0FF33AB62EB62FEF759FF1C4D53
:101D7800FEF7B4FE1B4800F08BF802F02CFAFEF7D1
:101D8800D7FB0120FFF70CFF0220FFF709FF00F047
:101D98009BF9154B15494FF480625D612846144B39
:101DA800009405930123CDE90144CDE903433B4663
:101DB80000F020F86A7B0646284622F004026A737F
:101DC80002F058FA2046FFF779FF3A46314628468E
:101DD800FEF742FE400C012000ED00E0D91B000890
:101DE8000801012088010120AC030120C00D012059
:101DF800EF52000807322DE9F04322F0070285B0C0
:101E08000E461F46109900F158037F3204460173AD
:101E1800042122F03F0206F1400941733F2AA2F152
:101E28004008C0E916334FF0000383600F98E3734E
:101E3800A073C4E9063305D883F31188BFF36F8F05
:101E4800084602DFB51820462946FEF78FFB073003
:101E58000E9B314620F00700C4E91898A0662D1A99
:101E6800029320460D9B2A4601930C9B00933B4608
:101E7800FEF7C6FD00236365044B9B6803B1DB6E68
:101E88002846E36605B0BDE8F08300BFAC03012037
:101E980040F2011383810023C0E91833C366014B64
:101EA80098607047AC030120094A6FF00A019368F3
:101EB8009967084958674B6843F080534B60002383
:101EC80083F31188BFF36F8F9368986F704700BFD3
:101ED800AC03012000ED00E070B590F90D20437BC4
:101EE800002A36DBD90634D11B4C63F07F03224627
:101EF8004373E16952F8183F934207D1C0E90021C2
:101F08000860E06111E09942F8D01B68002BF5D019
:101F180090F90E5093F90E60B542F4D0AE42F2DD5E
:101F28005968C0E9003108605860A569954200D039
:101F380005B9E568A3685A7BD20604D1DA897F2AF5
:101F480001D9AA6932B1AB4202D0284600F0B8F9EB
:101F5800656170BD6361FCE7AC03012070B590F961
:101F68000D200146437B002A04DA03F07F03437304
:101F780002F06EF94B7B1C4C63F07F0322464B73D7
:101F880052F8183FE069934207D1C1E90020016087
:101F9800E16111E09842F8D01B68002BF5D091F967
:101FA8000E5093F90E60B542F4D0AE42F2DD586897
:101FB800C1E9003001605960A569A368954200D065
:101FC80005B9E5688B4207D05A7BD20604D1DA8975
:101FD8007F2A01D9AA692AB1AB4202D0284600F06B
:101FE8006FF92B46636170BDAC03012049B9EFF36B
:101FF800058030B9054B5A699B689A4201D0FFF7B2
:1020080053BF81F31188BFF36F8F7047AC03012072
:10201800034648B9EFF3058232B9064A5169926816
:10202800914201D0FFF740BF83F31188BFF36F8F50
:10203800704700BFAC030120EFF31181102383F335
:102048001288BFF36F8F054B9A68D37B013BD3731C
:1020580081F31188BFF36F8F704700BFAC03012075
:1020680070B5EFF31186102383F31288BFF36F8FD7
:10207800144DAB68DA7B0132DA732A4652F8184FEE
:10208800944200D004B9EC685A7BD20604D1DA89AC
:102098007F2A01D9A2692AB1A34202D0204600F0C2
:1020A8000FF923466B6186F31188BFF36F8FEFF347
:1020B8001180102383F31288BFF36F8FBDE870403F
:1020C800FFF7A6BFAC030120024B03F11802C3E9D6
:1020D80006227047AC03012038B50446EFF311859A
:1020E800102383F31288BFF36F8F437B5B070FD5F1
:1020F800183002F006F9637B204623F0040363736B
:10210800FFF7EAFE29460548BDE83840FFF76EBFED
:1021180085F31188BFF36F8F38BD00BFDA03012044
:10212800014B9868704700BFAC0301202DE9F843C4
:102138000446077BEFF31185102383F31288BFF35E
:102148006F8F437B190705D585F31188BFF36F8F10
:10215800BDE8F883D90943F008025AD14273A3684D
:1021680013B1204602F07CF804F1180004F1580875
:1021780002F0C7F8A66DB04511D04FF0000976B14E
:10218800304602F06DF806F1180002F0BAF8304651
:10219800C6F87890FFF7A0FEA66DB045EFD1DFF83E
:1021A800B880D8F808309C423BD1EFF30589B9F1E3
:1021B800000918BF4FF00109D8F81860274A96425D
:1021C80000D00EB9D8F80C60B34202D0304600F007
:1021D80077F8C8F81460B9F1000F02D02048FFF76B
:1021E80057FED8F808309C4231D1EFF3058373BB12
:1021F800227BD20718D42846FFF756FEFB07A7D53F
:10220800002383F31188BFF36F8F0423184602DF7E
:102218009EE703F07F0343F00803437302F018F8C6
:102228009DE74FF00009C7E785F31188BFF36F8F6B
:1022380083F31188BFF36F8F0423184602DFEFF38F
:102248001180102383F31288BFF36F8FD4E785F3CF
:102258001188BFF36F8FD1E7AC030120C4030120BD
:1022680088010120044B0122C01A044BC0105843B6
:10227800034B1A54704700BF08020120ABAAAAAA50
:10228800DA030120C3897F2B12D80A4B1B6863B17C
:10229800094B90F90E201B689A4209DB437BDB0649
:1022A80006D1064BC31A18BF012303F0010070477B
:1022B8000023FAE738000120D0030120880001201C
:1022C8000E4B70B51E7C05460D4C06EB460304EB21
:1022D800C304204602F015F80A4B002228469A55F6
:1022E800FFF7D0FF48B1084B204608491A68013A61
:1022F800BDE87040D31700F091B870BDAC03012061
:1023080008020120DA030120380001206D220008AC
:1023180038B5EFF31185102383F31288BFF36F8F5D
:10232800104B114A9C681068A04206D1FFF7C8FFFD
:1023380085F31188BFF36F8F38BD00211B7C1160B6
:102348000A4AD35C002BF3D02046FFF79BFF0028F6
:10235800EED0637BDB0602D12046FFF7FFFD204667
:10236800E4E700BFAC030120CC030120DA0301201D
:102378000A480B4A0B49121A08B501F05CFF0A48D3
:102388000A4A0B49121A01F056FF0A480A4A0B4931
:10239800121ABDE8084001F04EBF00BF000001203E
:1023A80074000120405300080000012000000120B3
:1023B800405300080000002000000020B45300082B
:1023C800024B1868984208BF002070473C00012063
:1023D800034B1B680BB9FFF70FBB0020704700BF0A
:1023E800D403012030B570B10B4B5B6898420AD01A
:1023F800036843B1D3E90421D0E90445121941EB3C
:102408000501C3E90421D0E9003213605A600023B2
:10241800C0E9003330BD00BF3C000120B3F1FF3FED
:1024280008BFB2F1FF3F2DE9F84F0446994615461B
:102438001F467BD08160EFF31188102383F3128845
:10244800BFF36F8F0132DFF8ECA079F1FF3320DBA7
:10245800FFF7BEFF0135064649F100092D18DAE9F4
:10246800002749EBE0734FF00109C4E90453AD18A4
:1024780043EB0707FFF7A4FFDFF8BCE00346DEF8ED
:1024880004A0EBB9C4E900EACAF80040CEF8044059
:1024980028E0DAE900126FF001035B1A4FF0FF3110
:1024A80061EB02025B1B62EB0902012B4FF0000992
:1024B80072F10001BCBF01230022C0E90432D9E750
:1024C800D3E9041CD4E904208A4270EB0C0B24DA0B
:1024D800891A5A686CEB0000C3E90410C4E9003299
:1024E80014605C60FFF76CFF84420ED1134B1B68CD
:1024F8005BB9B9F1000F02D1FFF76AFF0646304613
:1025080001F0E8FE0021FFF7F9F988F31188BFF31D
:102518006F8F28463946BDE8F88F521A60EB0C00D9
:102528009A45C4E90420ADD01B68AAE700252F46C8
:10253800EFE700BF200201203C000120D403012066
:102548002DE9F047EFF31185102383F31288BFF3C9
:102558006F8FDFF8A4900026DFF8A0800027C9F865
:102568000000FFF72DFFD9F80030D8E900ECD917A3
:1025780050B1D0E90442A34271EB020A1CDAE41A12
:1025880062EB0102C0E9044213EB0E034FF00004B2
:102598004CEB01012046C9F80040C8E9003101F0C0
:1025A80099FE2146FFF7AAF985F31188BFF36F8FCB
:1025B800BDE8F047FFF7ACBE14EB0E024CEBE4733A
:1025C800C0E90467C8E90023FFF70CFF85F3118809
:1025D800BFF36F8F83689847EFF31185102383F358
:1025E8001288BFF36F8FD9F800301B1BC9F8003071
:1025F800FFF7E6FEB7E700BFD40301202002012061
:10260800014801F063BA00BFF45200082DE9F04117
:1026180001260746B24201DCBDE8F0813B461F4671
:1026280013F8014B002CF7D0252CF8D11C78252C59
:1026380007F10207F2D00023DFF804819C461D460B
:102648001F2D18D8A4F1200EBEF1100F09D9A4F13E
:10265800300EBEF1090F1ED80A2404FB03E320251F
:1026680004E028FA0EFE1EF0010F06D017F8014B01
:10267800002CE5D128E07F2D1CD8A4F1300EBEF146
:10268800090FE9D9242C10D1BCF1000F46D0B34270
:1026980046D00023EAE724F0040EBEF12A0FF8D052
:1026A8006C2C09D145F08005E0E724F0040EBEF15A
:1026B8002A0FEED06C2C22D06C2C1BD8682C23D07F
:1026C8006A2C28D04C2C26D0BCF1000FA4D0B445DD
:1026D800A0D144F02007A7F1650CBCF1020F0B68EC
:1026E80001D9612F1ED1073323F0070308330B608C
:1026F80001368EE7742CB9D07A2CB7D0E4E72C06D3
:1027080048BF45F40075CDE7EC0548BF45F40075B2
:1027180045F48075AAE745F42075A7E79C46B8E715
:102728006324D6E7692C02D007D8632C03D02F0680
:1027380001D5AC05D7D40433D9E7732CF6E700BF2D
:10274800892801002DE9F04F95B0436803938378F9
:102758009B07CDE90A12804611D50D920B4600263B
:102768001F7877B1252F10D001330993039B414679
:1027780038469847002806F1010680F22E854FF06A
:10278800FF36304615B0BDE8F08F5F789A1C252FCC
:102798000992EBD000242546A246A346BBF11F0FA1
:1027A80032D8A7F12003102B0AD8DFE803F0240958
:1027B800092A0909091B0909092209270909190010
:1027C800A7F13003092B2DD92A2F39D154B90D9BE4
:1027D8001BF0400F53F8042B0D9329D0154601E048
:1027E8004BF0010B099B13F8017B0993002FD5D1FE
:1027F80056E04BF0020B4BF0040BF3E74BF0080BE1
:10280800F0E74BF0100BEDE7BBF17F0F3FD8A7F1D6
:102818003003092BD8D81BF0400F03D00A2202FB43
:102828000535DFE70A2202FB0A3A4BF0200BD9E70D
:10283800B2F1000AF9DACAF1000A4BF0280BD1E725
:102848002E2F05D11BF0400F9BD14BF0400BC9E751
:10285800242F1CD1002C00F08A800B9B0D931BF0B9
:10286800400F0AD152460A980DA9FFF7CFFE0D9BDB
:102878001A1DD3F800A00D92B4E72A460A980DA9AC
:10288800FFF7C4FE0D9B1A1D1D680D92AAE76C2F59
:102898005AD052D8682F5FD06A2F65D04C2F63D09A
:1028A80034B10B9B0A980D9322460DA9FFF7AEFE93
:1028B800002D47F02003B8BF2BF0400B0793A3F17E
:1028C8006503BCBF1FFA8BFB0025022B54D947F0C8
:1028D8002003612B40F06383FF4307F02003089334
:1028E8000D9B073323F0070303F108020D924BF405
:1028F800C05204921A6805925A68DDF814C0C2F3EF
:102908000A57C2F3130047EA0C0353EA00040146CE
:102918000BF040044FEAD27259D13027D2B28DF869
:102928003D708DF83C20A7B2002C00F0BF810C2D23
:102938004FF000075DDD0D25B2E0742F3FF452AF74
:102948007A2F3FF44FAFABE71BF0800F18BF4BF463
:10295800007B4BF0800B45E71BF4807F18BF4BF4DE
:10296800007B4BF4807B3DE74BF4207B3AE7254620
:10297800AB465446AA4635E7FF4307F020030893C1
:102988000D9B073323F0070303F10802D3E9000185
:10299800079B0D921BF0400F08BF0625652B40F0E2
:1029A80099816B1C0022DBB24BF4805B1446112B1F
:1029B800CDE9002428BF11230EAA00F0ADFCC3B254
:1029C800059302230E9FCDF810B0069380E0002FE8
:1029D80000F03B813123D2B28DF83D30A7F2FF37AA
:1029E8008DF83C20A3B2002C00F057810C2D00F389
:1029F8005681C5F10D018900012301F1FF39A1F1CB
:102A08002104C1F1210E23FA0EFE03FA04F403FA9D
:102A180009F344EA0E0413EB030E44EB0409DEF158
:102A2800000BCDF818B069EB490BCDF81CB0DDF8F8
:102A380014B01EF1FF3E49F1FF390EEA0B0E09EA08
:102A48000009734574EB090912DBC1F12009B1F1E2
:102A5800200E00FA09F92BFA01F141EA09015CBFDD
:102A680040FA0EFE41EA0E0111F0010F00F0F0806D
:102A78000599CB1840EB0400B0F5801F9C46C0F2C6
:102A8800E7809DF83D10B7F5806F01F101018DF8E1
:102A98003D1000F0E980069A07991A401346014054
:102AA800089A0D20C2F1570403F00F021B0943EAEC
:102AB80001730911002A40F0FE80854280F2FD80F2
:102AC8000138F1D10E230120CDE905307023079399
:102AD80007F10902122A3B4600F2D1809DF83CB06A
:102AE8000BF00C091BF0010B40F02D81049B9A0799
:102AF80000F1238113F0040400F00281B9F1000F02
:102B080040F027814FF02009049B13F4405F23D144
:102B1800059B5033002D6B4408BF0125133B059AD4
:102B280022B113F8012D302A00F04781049B13F0DD
:102B3800100F059B18BF2B46381DC0F24381BD42BC
:102B480040F34081049A42F4005292B2BB4204928C
:102B580040F33A817D1C5D1B049B13F4005B00F07D
:102B6800358127EAE7740134B9F1000F00D0013448
:102B7800002D00F034816B1C1C44049BA245CCBF83
:102B8800AAEB0404002413F0090F04D13444A6422C
:102B980040F02A810024B9F1000F08D0039B414678
:102BA80048469847002806F10106FFF6E8AD049B61
:102BB8001A0513D5039B4146302098470028FFF695
:102BC800DEAD089BC3F178004146039B00F0F80096
:102BD8009847002806F10206FFF6D1AD049B1B07B3
:102BE80005D43444B44240F0098126460024BBF1A0
:102BF800000F00F0348127EAE77AA7EB0A0B6D4251
:102C0800059B5B4584BF0EAB5B440AF1FF3A8CBF62
:102C180058793020554506F1010900F3F980039BE6
:102C28004146984700280BF1010BFFF6A8ADBAF111
:102C3800FF3F08D1039B41462E2098470028FFF606
:102C48009EAD06F102094E46DAE730230127C2E6B7
:102C5800069B03EA0C0C079B03401846B7F5806FE8
:102C680026D15CEA00001CD042F008028DF83C2016
:102C78004FF480670E230593702307933B4603F1B7
:102C88006302C62A3AD903F2E73340F2CE7293427E
:102C98008CBF04230323069320E71D46DEE70D259A
:102CA800DCE742F004028DF83C20E3E73D46F7E616
:102CB80063460146F4E6092A09D830320DF1380C8A
:102CC800844485428CF80520B8BF0546F8E62244BE
:102CD800D2B2F3E7079B662B05D14BF4005B2C4679
:102CE8000122112363E6EBB2012B4FF000024FF0F3
:102CF800650738BF01231446079758E60223CAE739
:102D0800B9F1000F3FF400AFBAF1030F34DD049BB3
:102D18001F07AAF103042FD43444039B4146202003
:102D28009847002806F10106FFF629ADA642F4D11E
:102D3800BBF1000F36D0002415E0B9F1000F2BD1FC
:102D48004FF02B09E0E6B9F1000F28D14FF02D091B
:102D5800DAE64FF0200BBAF1040FECDD049B1D07F7
:102D6800AAF10404D8D5039B414658469847002841
:102D780006F10106FFF603AD9DF83C309F4D13F0B8
:102D8800080F9F4B08BF1D462F46B94617F8010B81
:102D980050B9751BA9445DE04FF02B0BDBE74FF0F2
:102DA8002D0BD8E75C46E7E7089BC01A4146039B12
:102DB800C0B298470028E8DAE1E4059A013AD2B2AD
:102DC8000592ACE65D1EC7E60025C5E6049B13F434
:102DD800006F069B0CBF032405241C44C4E6049B17
:102DE800D90648BF0134C8E6039B414620209847CE
:102DF800002806F10106BFF6CAAEC0E4039B4146AF
:102E080030209847002806F10106BFF6EBAEB6E47D
:102E1800BA450AD19DF83D30352B1ED805D19DF80D
:102E28003C3013F0100F08BF3120039B41469847F0
:102E38000028FFF6A4AC049BD8060BD5BAF1FF3FD7
:102E480008D106F1020941462E20039B9847002825
:102E5800FFF695AC4E464C4446E23120E5E79DF836
:102E68003D0031281EBF9DF83C3023F010038DF83B
:102E78003C304146039B98470028FFF680AC002D64
:102E88006DDD039B41462E209847002806F1020974
:102E9800FFF675AC01263346059A96423BBF503380
:102EA8006B44302013F8130C039B414698470028C5
:102EB80009F10109FFF663AC0136F6B2AE423346BA
:102EC800EADDDDE90732981A4146039BC0B298470C
:102ED8000028FFF654AC002F04DB4FD19DF83C309E
:102EE800DB064BD57F422D20039B4146984700289F
:102EF800FFF645AC069B042B42D14FF47A7697FB3C
:102F0800F6F505F13000039B4146C0B2984700280A
:102F180009F10309FFF633AC06FB1577642697FB26
:102F2800F6F505F13000039B4146C0B298470028EA
:102F380009F10109FFF623AC06FB15770A2697FB72
:102F4800F6F505F13000039B4146C0B298470028CA
:102F580009F10109FFF613AC06FB157718E0049B8D
:102F6800DA0602D406F10109ABE7039B41462E209D
:102F78009847002806F10209A3DA00E42B20B3E7FA
:102F8800069B032B09F10209C8D0069B012BD5D15A
:102F980007F1300009F101094146C0B255E7A7F130
:102FA8006303122B00F20081DFE813F013005800CE
:102FB800FE00FE00FE00FE005800FE00FE00FE00BF
:102FC800FE00FE001A01F900FE00FE002C00FE00C3
:102FD800BA000D9B1A1D1B680D928DF8383001241C
:102FE8000EAF1BF0080F2ED007EB04093D46A9458C
:102FF8002BD1F71BB944AAEB04042BE73353000881
:103008002F5300080D9B1A1D0D921F68AC4B002F03
:1030180008BF1F461BF0400F14BF29464FF0FF3171
:10302800384601F096F90446DBE7039B4146202029
:1030380098470028FFF6A3AB013DA542F5D85644B2
:10304800761BAA46D0E75546F7E715F8010B039B10
:10305800414698470028CADAFFF791BB1BF0800F5A
:103068000D9B3CD01BF4007F34D0073323F00703BB
:10307800D3E9000103F108020D922BF01009002991
:103088001FFA89F93DDA404261EB410149F4806950
:103098000DF1380B0A235A4601F067F919F0400F71
:1030A800A0EB0B0B65D029F001025D4592B240F30D
:1030B800B380002F00F0AB8019F010032C46914626
:1030C80040F0AD8040F2064319EA03031CBF013407
:1030D800002355E01A1D18680D92C117CDE71A1D77
:1030E8001BF4807F19680D9201D10846F5E71BF49F
:1030F800007F15BF48B208B241F3C01141F3C03197
:10310800BBE750EA0103C3D11BF0400FC0D0002D2C
:10311800BED12BF0110B1FFA8BF9AB462C46D1E729
:103128002BF0100B1FFA8BFB0A231BF080040D9A5F
:1031380059D01BF400711DBF073222F0070202F1BB
:103148000801101D19BF0D91D2E900010D901068FA
:1031580050EA010254D12BF016091BF0400F1FFA58
:1031680089F951D0002D4FD12BF0170B1FFA8BF98D
:10317800AB4619F0100354D0002F4FD10BF10104C6
:1031880019F0080F60D119F0010F06D0A2456FDDC4
:10319800AAEB040404EB0B05544622464FE04BF01F
:1031A800100B10237827C0E747F02003782B05D1B0
:1031B800582F14BF10234FF40473B6E7039B4146FE
:1031C800252098470028FFF6DAAA039B414638468F
:1031D80098470028FFF6D3AA0236099BFFF7C0BA22
:1031E80008230027A1E7111D0D911BF480711068B9
:1031F800AED01BF400711ABFC0B2214680B2A7E757
:103208002BF0060B1FFA8BF90DF1380B43E729F069
:1032180011091FFA89F981E79146AAE75C46023449
:10322800AEE75C464EE7CDE904234146039B2020E8
:1032380098470028FFF6A3AA049A059B01329245F5
:10324800F1DC341BA6181446A3B1039B4146302079
:1032580098470028FFF693AA87B3023641463846B6
:10326800039B98470028FFF68AAAB14635441CE01C
:103278005D4692E740F2064319EA030FF5D019F0CC
:10328800020F14BF2B20202019F4806F06F10106CD
:10329800414618BF2D20E3E7039B4146302098475D
:1032A800002809F10109FFF66AAAA5EB09035B45A5
:1032B800F2DC5D460EAE2DB9D9449CE60136D4E762
:1032C80037530008013D039B705D4146984700282D
:1032D800F1DAFFF754BA039B4146202098470028AB
:1032E80006F10106FFF64BAAA31B002BF3DC74E7DB
:1032F8001FB502AB0093074A4FF0CC3301F01CF91D
:10330800DDE90201C00840EA4170C90805B05DF86E
:1033180004FB00BFCDCCCCCC2DE9F04F9BB00446CC
:1033280005920A460A93C2F30A559DF890300B930A
:10333800D20FC1F313030992090D85B950EA0302AC
:103348001CD1059A30235371099B957143F00203F0
:1033580013711560012738461BB0BDE8F08F40F2A5
:10336800FF7295424AD10343099B059A14BF43F063
:10337800080343F0040313710027ECE700F001028F
:1033880008924FEA83080122AB4D48EA90788700FB
:103398009A461646C5F1000B5846069200F01CFBEB
:1033A800B5F1FF3FACBF8146A0F10109ABEB090BBA
:1033B80009EB05035846049300F014FB16A9A0F185
:1033C8007D05584600F012FA12AB069A0193A9EB54
:1033D800050510AB0292009320462B4616AA5146CB
:1033E80000F0EFFFB9F1010F04460D4600F2D2805C
:1033F800089B002B40F0C58001276BE043F4801A3E
:1034080000F001024FEA8A080343A5F23545089205
:1034180048EA90784FEA800749D140F2FE73194292
:103428000CBF01260026002D3246B3DB284600F0EB
:10343800CDFA032DC8BF0138049000F0D3FA049BDD
:103448007C305D1B054416A9184600F043FA12AB00
:10345800019310AB009320462B46029616AA5146BC
:1034680000F0AFFF049B152B04460D4600F2868042
:1034780014AB724A009338464FF0CC33414601F002
:103488005BF8149B159A9B0843EA827303EB83034A
:10349800BB42DDE9109A0CD13846414600F08EF95E
:1034A800049B83428CBF00270127002612E00126D7
:1034B800B9E7089B002B51D1013F48F1FF31B81BF8
:1034C80061F1000100F07AF9049B089F83428CBFE8
:1034D800002601260B9B002B40F09080DDF828B0D9
:1034E8004FF00008CDE906884FF00A0ADDE910011F
:1034F800FFF7FEFE129B0E93CDE90C0118461399B7
:10350800FFF7F6FE0C9B0D9A0F9198420B469341DC
:10351800814680F08D8020462946FFF7E9FE0E9A05
:103528000AFB09F3934214BF002606F001060C9B20
:1035380010930D9BCDE911390F9B1393079BB8F19D
:10354800000F14BF002707F0010701330AFB1048DA
:103558005FFA88F8079304460D46C7E7B81C48F198
:10356800000100F02BF9049B83428CBF002001204E
:10357800B9EB00006AF10002CDE9100200273E46CF
:10358800A8E7109B119A013B42F1FF32CDE91032B6
:1035980001278AE7B9F13E0FF0D84FF0FF33A9F1C0
:1035A800200003FA09F203FA00F0C9F1200123FA16
:1035B80001F102430A4303FA09F327EA030728EA59
:1035C800020857EA08070CBF012700276DE700FB30
:1035D80002FCA1FB0012013362448C4275EB020C21
:1035E800F5D2049ADDF828B01344259A1344012B28
:1035F800B8BF01239B45A8BF9B4671E70A2100225B
:1036080001230846E9E70AFB03F0A2FB0A2301317C
:103618000344944275EB0300F5D2594510DDBBF124
:10362800000F02D154EA05030AD00123069372E77A
:103638000A2200230121ECE7CCFBFFFFCDCCCCCC48
:10364800002E2FD04FF00A0A129B13990D9318469B
:10365800FFF74EFE0D9B0C910AFB00F29A42814641
:1036680020D1DDE91001FFF743FE0E900D912046B1
:103678002946FFF73DFE0D9B0E9A1092CDE91139B0
:103688000C9B1393079BB8F1000F14BF002707F09A
:10369800010701330AFB10485FFA88F807930446CC
:1036A8000D46D1E7DDF81090079B9944002F5DD0B7
:1036B800B8F1050F5AD114F001034DD1069A32B969
:1036C800DDE912239D4208BF944262D0069B181977
:1036D8004FF00A0445F10001002201262546A042C8
:1036E80071EB020758D2E3B1B3451ADA0B9B63B109
:1036F800259ADDF828B006EB0903134423EAE3739F
:103708009B45A8BF9B465E450BDD05304FF00A027E
:103718004FF0000341F10001FCF752FD09F10109E6
:10372800013E5E45A8BF5E4637B20FFA89F9059B90
:1037380009FA86F607F10508013E98444FF000099A
:10374800B94530DB059B3B4400225A71059B1A465C
:103758001E60099B1371FEE5069B2BB9DDE9122358
:103768009D4208BF944209D00123B0E7069B53B994
:10377800DDE912239D4208BF944204D1089B002B27
:10378800F2D1002EF0D0B8F1040F94BF002301232A
:103798009DE74FF00408F1E705FB02F7A4FB05429B
:1037A80001363A449BE70A220023FCF709FD303230
:1037B80008F8012D09F10109C2E700BF0A4A70B5EE
:1037C80003464FF0CC3600204FF0333506FB03F4A8
:1037D80002FB0144A3FB023121449D4275EB010425
:1037E80001D30130F2E770BDCDCCCCCC2DE9F04F40
:1037F8001A23354EB0FBF3FA03FB1A0389B00446CB
:103808000D4606EB0A1653B9D6E90023C1E9002391
:10381800D6E90201C5E9020109B0BDE8F08F2B4ADB
:1038280002EBC303D3E9008904AB0093D6E9022372
:103838004046494600F080FE06AB0093D6E90023D7
:1038480083460F464046494600F076FEDDE90662AB
:1038580016EB0B0652EB07084FF0000328BF0123B5
:10386800814633B1049B059A013342F10002CDE948
:1038780004322046039100F0B5F807461A2000FBF1
:103888000AF000F0AFF83F1A324643460399009712
:10389800484600F06CFE4FEA141C0D4A640004F020
:1038A8001E0352F82C40DC4004F00304241841F1B4
:1038B8000001C5E90041DDE904230097304641468F
:1038C80000F055FEA6E700BFD84C0008084C0008D9
:1038D800C85000082DE9F04F1A27DFF8E4A000F1DE
:1038E8001905B5FBF7F56F433A1A4FEA051B89B07E
:1038F80004460E460AEB05150AD1D5E90023C1E9AD
:103908000023D5E90201C6E9020109B0BDE8F08F3C
:103918002C4B03EBC203D3E9008904AB0093D5E930
:1039280002234046494600F007FE5AF80B206B6810
:10393800013ACDE9020106A963F10003009140466E
:10394800494600F0F9FDDDE906528A4602996D18EC
:10395800039952EB01084FF0000328BF0123814669
:1039680033B1049B059A013342F10002CDE90432D8
:10397800384600F037F80746204600F033F83F1A7B
:103988002A46434600974846514600F0F0FD4FEA64
:10399800141C0D4A640004F01E0352F82C40DC404D
:1039A80004F003040134241841F10001C6E9004180
:1039B800DDE9042300972846414600F0D8FDA2E738
:1039C800A84D0008084C00081C510008014B58433A
:1039D800800C704741340100014B5843000D70477B
:1039E800FB2E0B00024B5843C00C0130704700BF40
:1039F8004F931200704700EBC100408840087047A1
:103A0800F8B50346FFF7F7FFB0FA80F0CA000C4696
:103A18008DB2C0F11F00171D063203EB800CDCF8D5
:103A2800106056B9012101FA00F0D9680143D96044
:103A3800CCF81040DD539D52F8BDF1000431585ABE
:103A4800D85303EBC0009E52C5805D52F4E7043A98
:103A58002DE9F041CC1D11444FF0000824F0070473
:103A680021F007010E1B0460414604F11000F7081D
:103A7800C4F80C80B7FA87F2A760C2F12405C2F136
:103A88002002AD009200073500F09EFDA4F80080EA
:103A98002046ED086B0004EBC50243F00103638088
:103AA8007B1B59005180A21924F835502946A2F8E9
:103AB8000280A35304EBC7035A8842F001025A80DC
:103AC800BDE8F041FFF79CBF002070470FB407B571
:103AD80004A951F8040B0191FCF7EEFC03B05DF862
:103AE80004EB04B070477047012801D1EFF3058358
:103AF800FEF73EB801460068FFF7F6BF08B5FCF7C9
:103B080031FDBDE80840FCF751BD00210120FFF759
:103B1800EBBF61B662B680F31188BFF36F8F704751
:103B280072B6002383F31188BFF36F8FBFF34F8FF3
:103B380030BF62B6BFF36F8F7047202809D9B0F144
:103B4800004F08D80138B0FA80F0C0F11F004000DB
:103B58007047082070473E20704708B5FDF714F9F4
:103B6800002008BD01208840704700F003020F23A1
:103B780004329200934043EA9000C3B2020C9B00C7
:103B880092FAA2F203F18043B2FA82F203F59C336F
:103B9800914010B59C6824EA10400143996010BD1B
:103BA8000B8882B0C3F30B0303F57D62C2F30B02EB
:103BB800782A14D803F18043486803F50E331A684D
:103BC800024300201A600B88C3F30B0303F1804300
:103BD80003F50E331B680193019B02B070476FF029
:103BE8008500FAE70B88C3F30B0303F57D62C2F384
:103BF8000B02782A0AD803F180434968002003F5AC
:103C08000E331A6822EA01021A6070476FF08500C5
:103C180070470138082809D840F27513C34013F0DB
:103C2800010F14BF00206FF0850070476FF085000A
:103C3800704710B50888C0F30B00FFF7EAFF0028AB
:103C48001FDB4A68FF2A1BD093B2C2F38454C2F325
:103C5800054203F1804304FA02F203F50E331868B3
:103C680020EA02021A6049688BB2CA0EC1F3054104
:103C780003F180438A4003F50E33186802431A6043
:103C8800002010BD0888C0F30B0008B500F57D635F
:103C9800C3F30B03782B0AD800F180404B6800F57A
:103CA8000E300268934314BF0120022008BDFFF7BD
:103CB800B0FF002814BF01200220F7E770474368CF
:103CC80000205B681B690B60704743685B68586934
:103CD80042400A40424000205A6170474368002031
:103CE8005B68996170474368090400205B689961C3
:103CF8007047436800205A6853694B4053617047C6
:103D080010B503699868F8B1884219D1DC68086869
:103D1800A142986000D1D860002008602AB19A6852
:103D28000A60DA68996002B9D960002010E081421F
:103D380006D108682060D8688142EDD1DC60EBE7E5
:103D4800044600680028F2D1002AE8D16FF0150077
:103D580010BDF0B5446801201E46C2F380136768A1
:103D680088408B404FF0030E27EA000702F0300529
:103D78003B43202D90FAA0F7B7FA87F76360D4F891
:103D880008C0C2F3C1134FEA4707C2F341220EFA33
:103D980007F72CEA070C90FAA0F7B7FA87F74FEA6B
:103DA800470703FA07F343EA0C03A36090FAA0F36A
:103DB800B3FA83F3E7684FEA43030EFA03F327EAFB
:103DC800030790FAA0F3B3FA83F34FEA430302FA26
:103DD80003F242EA0702E26016D107292BD8226AC9
:103DE80090FAA0F32BB3B3FA83F39B000F2101FAE7
:103DF80003F322EA030290FAA0F3B3FA83F39B00D9
:103E080006FA03F31343236290FAA0F3B3FA83F399
:103E1800032190FAA0F05B00B0FA80F022682D0927
:103E280001FA03F3400022EA030385401D4325609D
:103E3800F0BD2B46D9E7030A616A93FAA3F282B16F
:103E4800B2FA82F292000F2793FAA3F3B3FA83F33C
:103E580007FA02F29B0021EA02029E4016436662BC
:103E6800D2E72A46EEE712F4003CF8B505460C46C0
:103E780013461DD0960714D550075DD55022D90694
:103E880011D542F4007203F4C061B1F5806F42D0DD
:103E9800B1F5C06F19D0B1F5007F18D142F080029A
:103EA80015E01022EBE79F06EDD542F48062EAE7C1
:103EB800D60305D5D00605D4C2F340129202E2E734
:103EC8003022E0E74FF40072DDE742F4C07213F4E9
:103ED80040372E6908D0306920FA04F1C9075FBF5E
:103EE8000121A14001433161BCF1000F06D0180344
:103EF80014D5696801234968A3408B6100232146D2
:103F08006868FFF726FF27B9336923FA04F2D20756
:103F18000CD40020F8BD42F48072D8E75903EDD5DF
:103F280001212846A140FFF7DEFEE7E70122A24073
:103F380023EA02033361ECE76FF08500EAE770B526
:103F48000B468968054611B15E680C6801B970BDF9
:103F58008A682A4002D04B68304698471CB12368CB
:103F680021461C46F2E72346FAE7F8B51F46044601
:103F780040680E461546FFF7ECFE112F07D10121C8
:103F88002B0501FA06F104D563685B689961002086
:103F9800F8BD2046FFF7A7FEF9E730B503681360C0
:103FA8000579046804EBC504A34202D36FF001004D
:103FB80030BD5C798C4201D00833F0E70020F7E788
:103FC8004368C1F34B1001F01F011B68C05801235F
:103FD8008B4003424FF0000014BF012300231370ED
:103FE800704710B54368C1F34B1001F01F011A6800
:103FF800012384588B4023438350002010BD10B503
:104008004368C1F34B14012201F01F0118688A406C
:10401800235823EA02032350002010BD38B5044674
:104028000D46FFF7DEFF29462046FFF7E8FF002090
:1040380038BD37B502690C46436810681D68D968F1
:104048008368DB6873B101AA984700280ADB2B68EC
:1040580023F400432B60019B03EB5403B3FBF4F3FD
:104068009BB2EB6003B030BDB0F5805F07D0B0F114
:10407800805F09D1002914BF012002207047002960
:1040880014BF032004207047002914BF0220032016
:10409800704743681B68D869DA69C0F3C000D10764
:1040A800DA6948BF40F002009207DA6948BF40F079
:1040B80004005107DA6948BF40F02000D20504D552
:1040C8004FF4807240F008001A62C10701D5082237
:1040D8001A62820701D501221A62410701D502221C
:1040E8001A62820601D504221A62704710B5436825
:1040F80010201B68DA691206FCD5EFF3118280F3F1
:104108001288BFF36F8FDC69240604D482F3118808
:10411800BFF36F8FEEE7996282F31188BFF36F8F59
:1041280010BD43681B68DA69100701D508221A62B6
:10413800DA69920603D55B6A00200B7070474FF06E
:10414800FF30704710B5026904460B465268126882
:104158000A6042681268126802F4C062B2F5806FA1
:1041680033D0A2F5C060424242411A7162681268B7
:10417800526802F44052B2F5805F28D0B2F5405F31
:1041880027D0002A0CBF012203225A7162681268E4
:104198001068116800F0102001F4C061FFF764FF97
:1041A8009871626800201268926802F44072A2F561
:1041B80040714A424A41DA7161680968896811F4B4
:1041C800804F18BF0322DA7110BD0222CDE700220A
:1041D800DBE70222D9E7704740B1C368587810F08E
:1041E80001001EBF1878B0FA80F040097047EFF35D
:1041F8001183102383F31288BFF36F8FFEE708B58E
:10420800FFF7F5FF10B54369044633B90020E268AB
:10421800537843F00103537010BD98470028F5D038
:104228000028E368B8BF4042FF28A8BFFF201870E5
:10423800EDE700F0C9B900F0B9B9102408B5EFF3FB
:10424800118384F31288BFF36F8FFFF769FCF6E7D9
:10425800D0E9003213605A600023C0E90033704788
:1042680008B5FFF7F5FF437B23F0020343730023F0
:10427800836008BD10B5EFF31184102383F312880F
:10428800BFF36F8FFDF728FE84F31188BFF36F8F9C
:1042980010BD014610B5EFF31184102383F3128883
:1042A800BFF36F8F437B13F0280F0AD183680BB1DC
:1042B800FFF7D6FF4B7B084623F004034B73FDF74B
:1042C8000BFE84F31188BFF36F8F10BD01211838DE
:1042D800FFF7DFBF08B50246FEF772F870B1D0E904
:1042E80004319B1A61EBE272B3F1004F72F10001E5
:1042F80004DA002AACBF1846002008BD6FF0004061
:10430800FBE7024638B5EFF31185102383F31288D3
:10431800BFF36F8F0368CBB1FEF752F8044610461F
:10432800FEF760F800224FF000438442C0E90423FE
:1043380006D1FEF74DF8FFF7CDFF0021FDF7DEFAB5
:10434800002085F31188BFF36F8F38BD6FF015001B
:10435800F7E710B5024601448A42134603D01C7899
:104368000132002CF8D1181A10BD2DE9F0471D466E
:10437800AB0548BF25F400750746884616464CBF6E
:104388004FF0070A4FF0270A4FEAE57938464146C9
:104398002A464B46FBF714FFD4B2092C88BF544475
:1043A8003A46434688BFE4B2AA4204F1300473EBAC
:1043B800090306F8014B07468846E7D23046BDE8B0
:1043C800F0872DE9F04F87B00618994602AB41EB0C
:1043D8000104009315463046D2E900232146DDF852
:1043E80044B000F0A9F804AB0093D5E902230746CE
:1043F80088463046214600F09FF8DDE902638419BB
:1044080051EB0306049BD5E900014FF0000228BFD9
:104418000122D218059B43F10003381848EB01012B
:10442800B84271EB0801D5E902C134BF0120002070
:1044380014EB0C0C46EB010110EB0C0041F10001F0
:10444800A04271EB060C34BF4FF0010C4FF0000C8A
:10445800CDE90423A9F1410A1CEB020243F1000350
:10446800CDF800A000F083F8109BC3E90001129B6F
:10447800012BDDE9042329D1D5E90201D5E900C5DD
:10448800201A66EB0101674578EB050534BF012565
:104498000025401B61F10001844276EB010534BF21
:1044A80001250025521BCDF800A063F1000300F0A0
:1044B8005EF8DDE90423CBE90001CDF800A0204631
:1044C800314600F054F807B0BDE8F08F17EB070E3F
:1044D80048EB080C201946EB0601BE457CEB0808A2
:1044E80034BF01270027C71941F10008D5E90001A9
:1044F80086457CEB010CD5E9021534BF012000206C
:10450800381A68F1000C401A6CEB050192185B41EF
:10451800A74278EB060534BF01250025521943F15F
:104528000003874278EB010834BF01250025521BA0
:10453800A9F140050095B8E7F0B50F460446A0FB81
:104548000201A7FB02524919A3FB044542F10002EC
:10455800A7FB0373611845F10004D219059E43F1C6
:104568000003121943F10003C6E90023F0BDF0B5BA
:10457800059CC4F14007C4F1200602FA06F6A4F12E
:104588002005BB4022FA05F53343C4F120062B432E
:1045980001FA06F6A4F12005E04021FA05F53043BA
:1045A800BA402843E14010431943F0BD0A44914200
:1045B80000F1FF3300D1704710B511F8014B03F833
:1045C800014F9142F9D110BD02440346934200D1F4
:1045D800704703F8011BF9E70148006870470000BD
:0445E8002802012084
:0845EC0010BCFF7F010000007C
:1045F40000000000944600082505000800000000A3
:1046040000000000B4460008000000003447000821
:1046140000000000D446000800000000F447000831
:10462400000000003448000800000000F4460008C0
:10463400000000001448000800000000D4470008EF
:1046440000000000B4470008000000009447000880
:1046540000000000744700080000000054470008F0
:10466400000000001447000800000000744800081F
:104674000000000054480008711200080000000007
:104684006D18000800000000B90D000800000000CB
:104694000752000800000000D84B00085600012013
:1046A40000000000C5100008000000000000000029
:1046B400AE52000814500008C84B00086E000120D8
:1046C40000000000000000000000000000000000E6
:1046D400E95100080000000000000000540001201F
:1046E40048020120450E0008000000000000000000
:1046F40014520008F44E0008A44B0008580001208E
:10470400C80201207113000800000000000000002E
:1047140022520008084F0008A44B00085A00012048
:10472400DC020120711300080000000000000000FA
:10473400305200081C4F0008A44B00085C00012004
:10474400F0020120711300080000000000000000C6
:104754003E520008304F0008A44B00085E000120C0
:104764000403012071130008000000000000000091
:104774004C520008444F0008A44B0008600001207C
:10478400180301207113000800000000000000005D
:104794005A520008584F0008A44B00086200012038
:1047A4002C03012071130008000000000000000029
:1047B400685200086C4F0008A44B000864000120F4
:1047C40040030120711300080000000000000000F5
:1047D40076520008804F0008A44B000866000120B0
:1047E40054030120711300080000000000000000C1
:1047F40084520008944F0008A44B0008680001206C
:10480400680301207113000800000000000000008C
:1048140092520008A84F0008A44B00086A00012027
:104824007C03012071130008000000000000000058
:10483400A0520008BC4F0008A44B00086C000120E3
:104844009003012071130008000000000000000024
:10485400BF52000818500008F44B000870000120F3
:104864001400012061150008000000000000000091
:10487400CF52000864500008F44B00087200012075
:104884002400012061150008000000000000000061
:1048940000000000133B000800000000133B000868
:1048A40000000000133B000800000000133B000858
:1048B40000000000133B000800000000133B000848
:1048C400E7510008DD0D0008E5510008DD0D000882
:1048D400E3510008DD0D0008E1510008DD0D00087A
:1048E400DF510008DD0D000800000000133B000844
:1048F40000000000133B000800000000133B000808
:1049040000000000133B000800000000133B0008F7
:1049140000000000133B000800000000133B0008E7
:1049240000000000133B000800000000133B0008D7
:1049340000000000133B000800000000133B0008C7
:1049440000000000133B0008DD510008DD0D0008E5
:1049540000000000133B000800000000133B0008A7
:1049640000000000133B000800000000133B000897
:1049740000000000133B000800000000133B000887
:1049840000000000133B000800000000133B000877
:1049940000000000133B000800000000133B000867
:1049A40000000000133B000800000000133B000857
:1049B40000000000133B000800000000133B000847
:1049C40000000000133B000800000000133B000837
:1049D400DB510008DD0D000800000000133B000857
:1049E40000000000133B000800000000133B000817
:1049F40000000000133B000800000000133B000807
:104A040000000000133B000800000000133B0008F6
:104A140000000000133B000800000000133B0008E6
:104A240000000000133B000800000000133B0008D6
:104A340000000000133B000800000000133B0008C6
:104A440000000000133B000800000000133B0008B6
:104A540000000000133B000800000000133B0008A6
:104A640000000000133B000800000000133B000896
:104A740000000000133B000800000000133B000886
:104A840000000000133B000800000000133B000876
:104A940000000000133B000800000000133B000866
:104AA40000000000133B000800000000133B000856
:104AB40000000000133B000800000000133B000846
:104AC40000000000133B000800000000133B000836
:104AD40000000000133B000800000000133B000826
:104AE40000000000133B000800000000133B000816
:104AF40000000000133B000800000000133B000806
:104B040000000000133B000800000000133B0008F5
:104B140000000000133B000800000000133B0008E5
:104B240000000000133B000800000000133B0008D5
:104B340000000000133B000800000000133B0008C5
:104B440000000000133B000800000000133B0008B5
:104B540000000000133B000800000000133B0008A5
:104B640000000000133B000800000000133B000895
:104B740000000000133B000800000000133B000885
:104B840000000000133B000800000000133B000875
:104B940000000000133B000800000000133B000865
:104BA4006F3E0008C73C0008D33C0008E53C000801
:104BB400EF3C0008FB3C0008C1120008093D000856
:044BC40000000000ED
:104BC800C93F0008EB3F00080740000825400008DF
:104BD800A93B0008ED3B0008000000001910000880
:0C4BE8008D3C0008000000003B3C000871
:104BF4002B410008F54000089B400008C11600083E
:044C04004D41000816
:104C08000100000000000000050000000000000096
:104C180019000000000000007D00000000000000F6
:104C28007102000000000000350C000000000000C8
:104C3800093D0000000000002D31010000000000C7
:104C4800E1F505000000000065CD1D000000000032
:104C5800F902950000000000DD0EE90200000000E6
:104C6800514A8D0E000000009573C24800000000F4
:104C7800E941CC6B010000008D49FD1A07000000D6
:104C8800C16FF28623000000C52EBCA2B10000004F
:104C9800D9E9AC2D780300003D9160E4581100007B
:104CA80031D6E275BC560000F52E6E4DAEB101004E
:104CB800C9EA268367780800ED95C28F055A2A004D
:104CC800A1EDCCCE1BC2D30025A4000A8BCA2204B6
:104CD80000000000000000000000000000000010BC
:104CE8000000000000000000B9340332B7F4AD142E
:104CF80010DB1AB30892540E0D307D951447BA1A7A
:104D080066088F4D26ADC66DF598BF85E2B745118B
:104D1800CA96853D92BD1DEBFCA11860DCEF5216CA
:104D28003C92AE220BB8C1B4839D2D5B0562DA1CA0
:104D3800304C7E8F4E8BB25B16F4529F8B56A51269
:104D4800FBD4827643ED8AF08FE7F931156519189F
:104D580050F19BD94A13EEB4284CF0A686C1251F02
:104D6800035FC270CB9E4916E642889C44EB201430
:104D7800B0650836AD6EA58585F0CA14E2FD031A44
:104D88000B899979D5B13D09D8DA973A35EBCF1027
:104D9800AC363F5E73BB38CF3E6752FA44AFBA15A4
:104DA80001000000000000000000000000000020DA
:104DB800345065C05FC9A652BB13CBAEC440C218FD
:104DC80006C8DF7100D5A87CF56F0FDA58FC2713E9
:104DD8006E4756357D24206502C7E768E48CA41D1C
:104DE800E9E60268D7CD39617977FCC2405BEF16F6
:104DF800798CDE43FFA751F991F3B278F5BDBE1166
:104E0800E857E9D6E8BEE87BB054AC8F848D751BB3
:104E1800EA23A499E9F9D38BB7A3714061DA3E1567
:104E2800CEE33ECB73F948088C97B427D51B701096
:104E3800A2BFEFB9EB8532154DB44DB49BBB6F19CA
:104E480096B6076CF8E7EEAD36D9B4F59135AE13E2
:104E5800222218AF4E6A684D91DAAA3D4F40741E5F
:104E68009FBD9EE006A1C09857C2A7FDA40E90174B
:104E78000E7D497173E3208FB220D87605143B125A
:104E8800853D7434811343B0AD297A5F27F4351C0E
:104E9800915100080000009000000010000000027E
:104EA800AD510008000000C0000000010000100023
:104EB800BC51000800000090000000010000000143
:104EC800000001200000000000000B0602000000A6
:104ED800DC4E000800000008CC510008260002063D
:104EE80000000120D451000822000B11FFFF000030
:104EF800002802400A000000300000000004000002
:104F0800FFFF0000002402400900000030000000FC
:104F180000020000FFFF000000200240080000001F
:104F28003000000000010000FFFF0000001C0240EC
:104F3800070000003000000080000000FFFF0000B4
:104F48000018024006000000300000004000000089
:104F5800FFFF0000001402400500000030000000C0
:104F680020000000FFFF00000010024004000000C5
:104F78003000000010000000FFFF0000000C02409D
:104F8800030000003000000008000000FFFF0000E0
:104F98000008024002000000300000000400000089
:104FA800FFFF000000040240010000003000000084
:104FB80002000000FFFF00000000024000000000A7
:104FC80030000000010000003448000814480008C0
:104FD800F4470008D4470008B4470008944700087D
:104FE800744700085447000834470008144700086D
:104FF800F446000800000000000000000000000067
:10500800000000000000000000000000003802401E
:1050180000140140B4460008850400003C50000814
:105028000100000000000000000000000000000077
:105038004450000844000000200000004C500008C4
:10504800010000005450000802000000C8040000DD
:1050580000020000E8040000000000000010014009
:10506800B4460008840400008850000801000000CD
:105078000000000000000000000000009050000840
:1050880044000000100000009850000801000000D3
:10509800A0500008020000002701000000020000E4
:1050A800E702000000000000F4450008F44500088D
:1050B800844600088C460008944600089446000878
:1050C80000000000000000000000000000000000D8
:1050D8000000004095596959555554551555555670
:1050E8000405154110545540455155444045504418
:1050F8005055554500400040400444966555565566
:1051080045404554514115405591555555554051C7
:105118000501000054455454455505040010041079
:105128001404400000000140555515415404000086
:105138004400010000000040410000445044455034
:105148005400555554556551004000400100000178
:105158000005010011545151545555050000000037
:10516800000000000000000000100000003048654A
:105178006C6C6F2C20576F726C64212066726F6D97
:10518800205A65706879720A006D656D6F72792DA5
:10519800706C616365686F6C64657240393030307B
:1051A8003030303000736472616D406330303030BD
:1051B800303030006D656D6F727940393030303085
:1051C80030303000464C4153485F30005352414D17
:1051D8005F30000A06050504010301020101010010
:1051E80001696E746572727570742D636F6E747276
:1051F8006F6C6C657240343030313363303000721C
:105208006363403430303233383030006770696F50
:10521800403430303232383030006770696F403493
:1052280030303232343030006770696F403430309B
:105238003232303030006770696F4034303032318C
:10524800433030006770696F403430303231383065
:1052580030006770696F403430303231343030009C
:105268006770696F403430303231303030006770E9
:10527800696F403430303230433030006770696FC6
:10528800403430303230383030006770696F403425
:1052980030303230343030006770696F403430302D
:1052A80032303030300072657365742D636F6E7400
:1052B800726F6C6C65720073657269616C40343032
:1052C8003031313430300073657269616C4034308C
:1052D80030313130303000000000000000000001A3
:1052E800020304060708096D61696E002A2A2A204C
:1052F800426F6F74696E67205A6570687972204FC3
:1053080053206275696C642076342E312E302D3529
:105318003037352D6763663631373063626536302E
:1053280035202A2A2A0A00696E66006E616E0028F6
:085338006E756C6C2900000089
:10534000D13A000800000000633B000800000000A4
:1053500000000000000000001C00012000C201004D
:1053600000010300000000002C00012000C2010029
:10537000000103000024F400C80000003C000120EC
:105380003C000120FFFFFFFFFFFFFFFFFFFFFFFFCC
:04539000FFFFFFFF1D
:105394000000000000000000000000000000000009
:1053A40000000000000000000000000000000000F9
:0453B40015E015E00B
:04000005080008895E
:00000001FF
